{
  "contractName": "SmartMoney",
  "abi": [
    {
      "inputs": [],
      "name": "contractBalance",
      "outputs": [
        {
          "internalType": "uint256",
          "name": "",
          "type": "uint256"
        }
      ],
      "stateMutability": "view",
      "type": "function"
    },
    {
      "inputs": [],
      "name": "deposit",
      "outputs": [],
      "stateMutability": "payable",
      "type": "function"
    },
    {
      "inputs": [],
      "name": "getContractBalance",
      "outputs": [
        {
          "internalType": "uint256",
          "name": "",
          "type": "uint256"
        }
      ],
      "stateMutability": "view",
      "type": "function"
    },
    {
      "inputs": [],
      "name": "withdrawAll",
      "outputs": [],
      "stateMutability": "nonpayable",
      "type": "function"
    },
    {
      "inputs": [
        {
          "internalType": "address payable",
          "name": "_to",
          "type": "address"
        }
      ],
      "name": "withdrawToAddress",
      "outputs": [],
      "stateMutability": "nonpayable",
      "type": "function"
    }
  ],
  "bytecode": "0x608060405234801561001057600080fd5b5061037f806100206000396000f3fe60806040526004361061004a5760003560e01c80636f9fb98a1461004f578063853828b61461007a5780638b7afe2e14610091578063a92bd72c146100bc578063d0e30db0146100e5575b600080fd5b34801561005b57600080fd5b506100646100ef565b6040516100719190610207565b60405180910390f35b34801561008657600080fd5b5061008f6100f7565b005b34801561009d57600080fd5b506100a6610167565b6040516100b39190610207565b60405180910390f35b3480156100c857600080fd5b506100e360048036038101906100de9190610285565b61016d565b005b6100ed6101d8565b005b600047905090565b600033905060006101066100ef565b90508173ffffffffffffffffffffffffffffffffffffffff166108fc829081150290604051600060405180830381858888f1935050505015801561014e573d6000803e3d6000fd5b508060005461015d91906102e1565b6000819055505050565b60005481565b60006101776100ef565b90508173ffffffffffffffffffffffffffffffffffffffff166108fc829081150290604051600060405180830381858888f193505050501580156101bf573d6000803e3d6000fd5b50806000546101ce91906102e1565b6000819055505050565b346000546101e69190610315565b600081905550565b6000819050919050565b610201816101ee565b82525050565b600060208201905061021c60008301846101f8565b92915050565b600080fd5b600073ffffffffffffffffffffffffffffffffffffffff82169050919050565b600061025282610227565b9050919050565b61026281610247565b811461026d57600080fd5b50565b60008135905061027f81610259565b92915050565b60006020828403121561029b5761029a610222565b5b60006102a984828501610270565b91505092915050565b7f4e487b7100000000000000000000000000000000000000000000000000000000600052601160045260246000fd5b60006102ec826101ee565b91506102f7836101ee565b925082820390508181111561030f5761030e6102b2565b5b92915050565b6000610320826101ee565b915061032b836101ee565b9250828201905080821115610343576103426102b2565b5b9291505056fea26469706673582212201620e4a642578e6598849fe3edcd75ed4f80a44fc4e3b02abc7df49971dae00b64736f6c63430008130033",
  "immutableReferences": {},
  "source": "// SPDX-License-Identifier: UnDefined\r\n\r\npragma solidity 0.8.19;\r\n\r\ncontract SmartMoney{\r\n\r\n    uint public contractBalance;\r\n    \r\n    function deposit() payable public{\r\n        contractBalance = contractBalance + msg.value;\r\n    }\r\n\r\n    function getContractBalance() public view returns(uint){\r\n        return address(this).balance;\r\n    }\r\n\r\n    function withdrawAll() public{\r\n        address payable to = payable(msg.sender);\r\n        uint balance = getContractBalance();\r\n        to.transfer(balance);\r\n        contractBalance = contractBalance - balance;\r\n    }\r\n\r\n    function withdrawToAddress(address payable _to) public{\r\n        uint balance = getContractBalance();\r\n        _to.transfer(balance);\r\n        contractBalance = contractBalance - balance;\r\n    }\r\n\r\n}",
  "sourcePath": "C:\\Users\\hp\\Desktop\\Blockchain\\06-SmartMoney\\contracts\\SmartMoney.sol",
  "compiler": {
    "name": "solc",
    "version": "0.8.19+commit.7dd6d404.Emscripten.clang"
  },
  "schemaVersion": "3.4.14",
  "updatedAt": "2023-07-11T19:26:35.649Z",
  "devdoc": {
    "kind": "dev",
    "methods": {},
    "version": 1
  },
  "userdoc": {
    "kind": "user",
    "methods": {},
    "version": 1
  }
}